{
  "_format": "hh-sol-artifact-1",
  "contractName": "Voting",
  "sourceName": "contracts/Voting.sol",
  "abi": [
    {
      "inputs": [],
      "stateMutability": "nonpayable",
      "type": "constructor"
    },
    {
      "inputs": [
        {
          "internalType": "string",
          "name": "_name",
          "type": "string"
        },
        {
          "internalType": "string",
          "name": "_party",
          "type": "string"
        }
      ],
      "name": "addCandidate",
      "outputs": [],
      "stateMutability": "nonpayable",
      "type": "function"
    },
    {
      "inputs": [],
      "name": "admin",
      "outputs": [
        {
          "internalType": "address",
          "name": "",
          "type": "address"
        }
      ],
      "stateMutability": "view",
      "type": "function"
    },
    {
      "inputs": [
        {
          "internalType": "uint256",
          "name": "",
          "type": "uint256"
        }
      ],
      "name": "candidates",
      "outputs": [
        {
          "internalType": "string",
          "name": "name",
          "type": "string"
        },
        {
          "internalType": "string",
          "name": "party",
          "type": "string"
        },
        {
          "internalType": "uint256",
          "name": "voteCount",
          "type": "uint256"
        }
      ],
      "stateMutability": "view",
      "type": "function"
    },
    {
      "inputs": [],
      "name": "candidatesCount",
      "outputs": [
        {
          "internalType": "uint256",
          "name": "",
          "type": "uint256"
        }
      ],
      "stateMutability": "view",
      "type": "function"
    },
    {
      "inputs": [
        {
          "internalType": "uint256",
          "name": "id",
          "type": "uint256"
        }
      ],
      "name": "getCandidate",
      "outputs": [
        {
          "internalType": "string",
          "name": "",
          "type": "string"
        },
        {
          "internalType": "string",
          "name": "",
          "type": "string"
        },
        {
          "internalType": "uint256",
          "name": "",
          "type": "uint256"
        }
      ],
      "stateMutability": "view",
      "type": "function"
    },
    {
      "inputs": [
        {
          "internalType": "address",
          "name": "voter",
          "type": "address"
        },
        {
          "internalType": "uint256",
          "name": "rank",
          "type": "uint256"
        }
      ],
      "name": "getCandidateIdByRank",
      "outputs": [
        {
          "internalType": "uint256",
          "name": "",
          "type": "uint256"
        }
      ],
      "stateMutability": "view",
      "type": "function"
    },
    {
      "inputs": [
        {
          "internalType": "address",
          "name": "voter",
          "type": "address"
        },
        {
          "internalType": "uint256",
          "name": "rank",
          "type": "uint256"
        }
      ],
      "name": "getRankedCandidate",
      "outputs": [
        {
          "internalType": "string",
          "name": "",
          "type": "string"
        },
        {
          "internalType": "string",
          "name": "",
          "type": "string"
        }
      ],
      "stateMutability": "view",
      "type": "function"
    },
    {
      "inputs": [
        {
          "internalType": "address",
          "name": "",
          "type": "address"
        }
      ],
      "name": "hasVoted",
      "outputs": [
        {
          "internalType": "bool",
          "name": "",
          "type": "bool"
        }
      ],
      "stateMutability": "view",
      "type": "function"
    },
    {
      "inputs": [
        {
          "internalType": "uint256[]",
          "name": "candidateIds",
          "type": "uint256[]"
        },
        {
          "internalType": "uint256[]",
          "name": "ranks",
          "type": "uint256[]"
        }
      ],
      "name": "submitRanking",
      "outputs": [],
      "stateMutability": "nonpayable",
      "type": "function"
    }
  ],
  "bytecode": "0x608060405234801561001057600080fd5b50336000806101000a81548173ffffffffffffffffffffffffffffffffffffffff021916908373ffffffffffffffffffffffffffffffffffffffff16021790555061192f806100606000396000f3fe608060405234801561001057600080fd5b50600436106100935760003560e01c806335b8e8201161006657806335b8e8201461013457806368b5732514610166578063e0e87c0914610182578063f4aed7da146101b3578063f851a440146101e357610093565b806309eef43e1461009857806326541b56146100c85780632d35a8a2146100e45780633477ee2e14610102575b600080fd5b6100b260048036038101906100ad9190611044565b610201565b6040516100bf9190611477565b60405180910390f35b6100e260048036038101906100dd9190611115565b610221565b005b6100ec610343565b6040516100f9919061160e565b60405180910390f35b61011c60048036038101906101179190611181565b610349565b60405161012b939291906114c9565b60405180910390f35b61014e60048036038101906101499190611181565b610483565b60405161015d939291906114c9565b60405180910390f35b610180600480360381019061017b91906110a9565b610639565b005b61019c6004803603810190610197919061106d565b610a5a565b6040516101aa929190611492565b60405180910390f35b6101cd60048036038101906101c8919061106d565b610d2c565b6040516101da919061160e565b60405180910390f35b6101eb610e55565b6040516101f8919061145c565b60405180910390f35b60046020528060005260406000206000915054906101000a900460ff1681565b60008054906101000a900473ffffffffffffffffffffffffffffffffffffffff1673ffffffffffffffffffffffffffffffffffffffff163373ffffffffffffffffffffffffffffffffffffffff16146102af576040517f08c379a00000000000000000000000000000000000000000000000000000000081526004016102a69061154e565b60405180910390fd5b6040518060600160405280838152602001828152602001600081525060016000600254815260200190815260200160002060008201518160000190805190602001906102fc929190610e79565b506020820151816001019080519060200190610319929190610e79565b50604082015181600201559050506002600081548092919061033a906117e4565b91905055505050565b60025481565b600160205280600052604060002060009150905080600001805461036c906117b2565b80601f0160208091040260200160405190810160405280929190818152602001828054610398906117b2565b80156103e55780601f106103ba576101008083540402835291602001916103e5565b820191906000526020600020905b8154815290600101906020018083116103c857829003601f168201915b5050505050908060010180546103fa906117b2565b80601f0160208091040260200160405190810160405280929190818152602001828054610426906117b2565b80156104735780601f1061044857610100808354040283529160200191610473565b820191906000526020600020905b81548152906001019060200180831161045657829003601f168201915b5050505050908060020154905083565b606080600060025484106104cc576040517f08c379a00000000000000000000000000000000000000000000000000000000081526004016104c3906115ee565b60405180910390fd5b6000600160008681526020019081526020016000206040518060600160405290816000820180546104fc906117b2565b80601f0160208091040260200160405190810160405280929190818152602001828054610528906117b2565b80156105755780601f1061054a57610100808354040283529160200191610575565b820191906000526020600020905b81548152906001019060200180831161055857829003601f168201915b5050505050815260200160018201805461058e906117b2565b80601f01602080910402602001604051908101604052809291908181526020018280546105ba906117b2565b80156106075780601f106105dc57610100808354040283529160200191610607565b820191906000526020600020905b8154815290600101906020018083116105ea57829003601f168201915b505050505081526020016002820154815250509050806000015181602001518260400151935093509350509193909250565b600460003373ffffffffffffffffffffffffffffffffffffffff1673ffffffffffffffffffffffffffffffffffffffff16815260200190815260200160002060009054906101000a900460ff16156106c6576040517f08c379a00000000000000000000000000000000000000000000000000000000081526004016106bd9061150e565b60405180910390fd5b80518251111561070b576040517f08c379a0000000000000000000000000000000000000000000000000000000008152600401610702906115ae565b60405180910390fd5b6000600160025461071c91906116d2565b67ffffffffffffffff81111561075b577f4e487b7100000000000000000000000000000000000000000000000000000000600052604160045260246000fd5b6040519080825280602002602001820160405280156107895781602001602082028036833780820191505090505b50905060005b83518110156109fc5760008482815181106107d3577f4e487b7100000000000000000000000000000000000000000000000000000000600052603260045260246000fd5b602002602001015190506000848381518110610818577f4e487b7100000000000000000000000000000000000000000000000000000000600052603260045260246000fd5b602002602001015190506002548210610866576040517f08c379a000000000000000000000000000000000000000000000000000000000815260040161085d906115ee565b60405180910390fd5b6001811015801561087957506002548111155b6108b8576040517f08c379a00000000000000000000000000000000000000000000000000000000081526004016108af906115ce565b60405180910390fd5b8381815181106108f1577f4e487b7100000000000000000000000000000000000000000000000000000000600052603260045260246000fd5b602002602001015115610939576040517f08c379a00000000000000000000000000000000000000000000000000000000081526004016109309061152e565b60405180910390fd5b81600360003373ffffffffffffffffffffffffffffffffffffffff1673ffffffffffffffffffffffffffffffffffffffff168152602001908152602001600020600060018661098891906116d2565b81526020019081526020016000208190555060018482815181106109d5577f4e487b7100000000000000000000000000000000000000000000000000000000600052603260045260246000fd5b602002602001019015159081151581525050505080806109f4906117e4565b91505061078f565b506001600460003373ffffffffffffffffffffffffffffffffffffffff1673ffffffffffffffffffffffffffffffffffffffff16815260200190815260200160002060006101000a81548160ff021916908315150217905550505050565b60608060008311610aa0576040517f08c379a0000000000000000000000000000000000000000000000000000000008152600401610a979061158e565b60405180910390fd5b600460008573ffffffffffffffffffffffffffffffffffffffff1673ffffffffffffffffffffffffffffffffffffffff16815260200190815260200160002060009054906101000a900460ff16610b2c576040517f08c379a0000000000000000000000000000000000000000000000000000000008152600401610b239061156e565b60405180910390fd5b6000600360008673ffffffffffffffffffffffffffffffffffffffff1673ffffffffffffffffffffffffffffffffffffffff16815260200190815260200160002060008581526020019081526020016000205490506002548110610bc5576040517f08c379a0000000000000000000000000000000000000000000000000000000008152600401610bbc906115ee565b60405180910390fd5b600060016000838152602001908152602001600020604051806060016040529081600082018054610bf5906117b2565b80601f0160208091040260200160405190810160405280929190818152602001828054610c21906117b2565b8015610c6e5780601f10610c4357610100808354040283529160200191610c6e565b820191906000526020600020905b815481529060010190602001808311610c5157829003601f168201915b50505050508152602001600182018054610c87906117b2565b80601f0160208091040260200160405190810160405280929190818152602001828054610cb3906117b2565b8015610d005780601f10610cd557610100808354040283529160200191610d00565b820191906000526020600020905b815481529060010190602001808311610ce357829003601f168201915b505050505081526020016002820154815250509050806000015181602001519350935050509250929050565b6000808211610d70576040517f08c379a0000000000000000000000000000000000000000000000000000000008152600401610d679061158e565b60405180910390fd5b600460008473ffffffffffffffffffffffffffffffffffffffff1673ffffffffffffffffffffffffffffffffffffffff16815260200190815260200160002060009054906101000a900460ff16610dfc576040517f08c379a0000000000000000000000000000000000000000000000000000000008152600401610df39061156e565b60405180910390fd5b600360008473ffffffffffffffffffffffffffffffffffffffff1673ffffffffffffffffffffffffffffffffffffffff168152602001908152602001600020600083815260200190815260200160002054905092915050565b60008054906101000a900473ffffffffffffffffffffffffffffffffffffffff1681565b828054610e85906117b2565b90600052602060002090601f016020900481019282610ea75760008555610eee565b82601f10610ec057805160ff1916838001178555610eee565b82800160010185558215610eee579182015b82811115610eed578251825591602001919060010190610ed2565b5b509050610efb9190610eff565b5090565b5b80821115610f18576000816000905550600101610f00565b5090565b6000610f2f610f2a8461165a565b611629565b90508083825260208201905082856020860282011115610f4e57600080fd5b60005b85811015610f7e5781610f64888261102f565b845260208401935060208301925050600181019050610f51565b5050509392505050565b6000610f9b610f9684611686565b611629565b905082815260208101848484011115610fb357600080fd5b610fbe848285611770565b509392505050565b600081359050610fd5816118cb565b92915050565b600082601f830112610fec57600080fd5b8135610ffc848260208601610f1c565b91505092915050565b600082601f83011261101657600080fd5b8135611026848260208601610f88565b91505092915050565b60008135905061103e816118e2565b92915050565b60006020828403121561105657600080fd5b600061106484828501610fc6565b91505092915050565b6000806040838503121561108057600080fd5b600061108e85828601610fc6565b925050602061109f8582860161102f565b9150509250929050565b600080604083850312156110bc57600080fd5b600083013567ffffffffffffffff8111156110d657600080fd5b6110e285828601610fdb565b925050602083013567ffffffffffffffff8111156110ff57600080fd5b61110b85828601610fdb565b9150509250929050565b6000806040838503121561112857600080fd5b600083013567ffffffffffffffff81111561114257600080fd5b61114e85828601611005565b925050602083013567ffffffffffffffff81111561116b57600080fd5b61117785828601611005565b9150509250929050565b60006020828403121561119357600080fd5b60006111a18482850161102f565b91505092915050565b6111b381611728565b82525050565b6111c28161173a565b82525050565b60006111d3826116b6565b6111dd81856116c1565b93506111ed81856020860161177f565b6111f6816118ba565b840191505092915050565b600061120e6017836116c1565b91507f596f75206861766520616c726561647920766f7465642e0000000000000000006000830152602082019050919050565b600061124e6017836116c1565b91507f4475706c69636174652072616e6b2064657465637465640000000000000000006000830152602082019050919050565b600061128e6023836116c1565b91507f4f6e6c792061646d696e2063616e20706572666f726d2074686973206163746960008301527f6f6e2e00000000000000000000000000000000000000000000000000000000006020830152604082019050919050565b60006112f46022836116c1565b91507f566f74657220686173206e6f74207375626d697474656420612072616e6b696e60008301527f672e0000000000000000000000000000000000000000000000000000000000006020830152604082019050919050565b600061135a6019836116c1565b91507f52616e6b206d7573742062652031206f72206869676865722e000000000000006000830152602082019050919050565b600061139a6014836116c1565b91507f546f6f206d616e792063616e646964617465732e0000000000000000000000006000830152602082019050919050565b60006113da6013836116c1565b91507f52616e6b206f7574206f6620626f756e64732e000000000000000000000000006000830152602082019050919050565b600061141a6015836116c1565b91507f496e76616c69642063616e6469646174652049442e00000000000000000000006000830152602082019050919050565b61145681611766565b82525050565b600060208201905061147160008301846111aa565b92915050565b600060208201905061148c60008301846111b9565b92915050565b600060408201905081810360008301526114ac81856111c8565b905081810360208301526114c081846111c8565b90509392505050565b600060608201905081810360008301526114e381866111c8565b905081810360208301526114f781856111c8565b9050611506604083018461144d565b949350505050565b6000602082019050818103600083015261152781611201565b9050919050565b6000602082019050818103600083015261154781611241565b9050919050565b6000602082019050818103600083015261156781611281565b9050919050565b60006020820190508181036000830152611587816112e7565b9050919050565b600060208201905081810360008301526115a78161134d565b9050919050565b600060208201905081810360008301526115c78161138d565b9050919050565b600060208201905081810360008301526115e7816113cd565b9050919050565b600060208201905081810360008301526116078161140d565b9050919050565b6000602082019050611623600083018461144d565b92915050565b6000604051905081810181811067ffffffffffffffff821117156116505761164f61188b565b5b8060405250919050565b600067ffffffffffffffff8211156116755761167461188b565b5b602082029050602081019050919050565b600067ffffffffffffffff8211156116a1576116a061188b565b5b601f19601f8301169050602081019050919050565b600081519050919050565b600082825260208201905092915050565b60006116dd82611766565b91506116e883611766565b9250827fffffffffffffffffffffffffffffffffffffffffffffffffffffffffffffffff0382111561171d5761171c61182d565b5b828201905092915050565b600061173382611746565b9050919050565b60008115159050919050565b600073ffffffffffffffffffffffffffffffffffffffff82169050919050565b6000819050919050565b82818337600083830152505050565b60005b8381101561179d578082015181840152602081019050611782565b838111156117ac576000848401525b50505050565b600060028204905060018216806117ca57607f821691505b602082108114156117de576117dd61185c565b5b50919050565b60006117ef82611766565b91507fffffffffffffffffffffffffffffffffffffffffffffffffffffffffffffffff8214156118225761182161182d565b5b600182019050919050565b7f4e487b7100000000000000000000000000000000000000000000000000000000600052601160045260246000fd5b7f4e487b7100000000000000000000000000000000000000000000000000000000600052602260045260246000fd5b7f4e487b7100000000000000000000000000000000000000000000000000000000600052604160045260246000fd5b6000601f19601f8301169050919050565b6118d481611728565b81146118df57600080fd5b50565b6118eb81611766565b81146118f657600080fd5b5056fea2646970667358221220109cf6d0a188c887cb3807173e9cb0b8fc7fa7b0d4cbe7420e3392e90029bde564736f6c63430008000033",
  "linkReferences": {},
  "deployedLinkReferences": {}
}